:020000040000FA
:10000000485B042045D6030075D0030031D60300B9
:1000100031D6030031D6030031D6030031D60300B8
:10002000000000000000000000000000B1D7030045
:1000300031D603000000000049D7030031D6030089
:10004000DDD90300DDD90300DDD90300DDD90300CC
:10005000DDD90300DDD90300DDD90300DDD90300BC
:10006000DDD90300DDD90300DDD90300DDD90300AC
:10007000DDD90300DDD90300DDD90300DDD903009C
:10008000DDD90300DDD90300DDD90300DDD903008C
:10009000DDD90300DDD90300DDD90300DDD903007C
:1000A000DDD90300DDD90300DDD90300DDD903006C
:1000B000DDD90300DDD90300DDD90300DDD903005C
:1000C000DDD90300DDD90300DDD90300DDD903004C
:1000D000DDD90300DDD90300DDD90300DDD903003C
:1000E000DDD90300DDD90300DDD90300DDD903002C
:1000F000DDD90300DDD90300DDD90300DDD903001C
:10010000DDD90300DDD90300DDD90300DDD903000B
:10011000DDD90300DDD90300DDD90300DDD90300FB
:10012000DDD90300DDD90300DDD90300DDD90300EB
:10013000DDD90300DDD90300DDD90300DDD90300DB
:10014000DDD90300DDD90300DDD90300DDD90300CB
:10015000DDD90300FFFFFFFF2DE9F04FADF50B7D6B
:10016000DDF850B20E909BF8B440DBF8B050012C93
:100170000C95039104920D9307D02946104614461E
:1001800005F022FF002800F0FE86959B03F54975D7
:100190002846029502F010F801460C9894F0BFF83A
:1001A0000446284602F036F80146204694F093F8BB
:1001B0000546959B2946D3F8240305F0FBFE03462C
:1001C000003B18BF0123959A2946D2F828038DF8E1
:1001D000743005F0EFFE0346003B18BF0123959AEB
:1001E0002946D2F82C038DF8753005F0E3FE03465E
:1001F000003B18BF012331A91DA88DF8763001F00E
:1002000083FB061E00F0EF8741F35E8025A931AA2B
:10021000959C0B9102EB860052F8043B03F26B5362
:1002200004EB83035B68824241F8043BF4D146ABA4
:100230000093959B20AC019403F5AC53029A0C9863
:100240009BF8B410043301F075FB1EAB40AA2146A5
:1002500046A801F013FA1E9A0D9B4FEA420ABAF122
:10026000000F03F1004710DD4FF000080DF5807915
:10027000D9F80010384605F0BDFD93F01FF908F1DC
:100280000108C24549F8040BF2D19BF8B430032BA6
:1002900000F07A8700224C924D924E924F925092EB
:1002A00051921A0600F1DD875B0013F0FF0322D0A4
:1002B0009A00959B46A803F5AC511C3193F0EDFADA
:1002C0009BF8B400B8B146AA4CA90FFA80FC830091
:1002D00002EB800E52F8040B964541F8040BF9D15D
:1002E00046AA134402EBCC0C4EAA53F8041B9C45BF
:1002F00042F8041FF9D1959B2946D3F8240305F051
:1003000059FE0346003B18BF0123959A2946D2F8AF
:1003100028038DF8743005F04DFE0346003B18BFEE
:100320000123959A2946D2F82C038DF8753005F0F3
:1003300041FE0346003B18BF012331A91DA88DF8DB
:10034000763001F0E1FAB0F1000800F02E8720DDF0
:1003500031AA11460DF58C7E4FEA880C02EB88001D
:1003600051F8043B0DF50A7909EB830353F8FC3C83
:1003700088424EF8043BF3D146AB9C4452F8043B10
:100380008AA901EB830353F8F03C90424CF8043BFC
:10039000F4D17AAB1393959B2946D3F8240305F047
:1003A00009FE0346003B18BF0123959A2946D2F85F
:1003B00028038DF8743005F0FDFD0346003B18BF9F
:1003C0000123959A2946D2F82C038DF8753005F053
:1003D000F1FD0346003B18BF012331A91DA88DF88C
:1003E000763001F091FA031E0A9300F0ED8640F397
:1003F000678728AA114610920A9A31AB959D03EBA4
:10040000820053F8042B02F25D5255F822209842E4
:1004100041F8042BF5D146AB53F82830002E119348
:100420000EDD0B9BDBF86480994603EB8605D9F85B
:100430000000414605F02AFC49F8040B4D45F6D171
:100440000021039805F0C0FD002840F00986002136
:10045000039805F0B9FD002840F02186DBF88010F4
:100460000E9805F009FB93F0D8FE03990546DBF8DA
:10047000780005F001FB93F0D0FE804604F058FFB1
:100480008FA3D3E9002305F03BFA78B1284604F0A6
:100490004FFF8BA3D3E9002305F032FA30B10021DE
:1004A000049805F091FD002840F00087DBF8D0307B
:1004B00012938549DBF8DC0005F0E8FB834905462B
:1004C000129805F0E3FB0146284605F0D7FA0346EB
:1004D0007D49DBF8D8009846159305F0D7FB7B499A
:1004E0000546404605F0D2FB0146284605F0C6FA0F
:1004F00003461D4641464046169305F0BFFA29467D
:1005000005F0BAFA049D2B902946DBF8B00005F0FF
:100510005BFD30B92846002105F06AFD002800F097
:1005200096860A9B10992BA89A0093F0B6F9402260
:1005300000215AA893F0D8F90023DBF8BC003493CB
:1005400035933693379305F07DFD4FF07E5200EBE7
:100550008000011F431F1B918AA91793002E01EBF6
:10056000830343F8C02C0EDD0B9BDFF864819946B2
:1005700003EB8605D9F80000414605F087FB49F8F2
:10058000040B4D45F6D1DDF82C8038463246414605
:100590002EAB009401F06CFEDBF8BC0005F052FDC0
:1005A00003461E9A40A951F822502E9A013B34A9C5
:1005B00041F82320DBF800003F9505F043FD03469A
:1005C0005F1E40998AAA03EB870302EB830343F87B
:1005D000C41C4FF07E5005F04FFA34AB43F82700AF
:1005E000DBF8040005F02EFD03465F1E8AAA03EB2C
:1005F000870302EB8303294643F8C45C4FF07E5027
:1006000005F03AFA34AB43F827000021DBF8780014
:1006100005F03CFB0D9905F039FB324641462EAB07
:10062000009401F025FE21461EAB22AA2EA801F05F
:100630003BF81F9F002F11DD22AB1D4603EB870700
:100640001A6802F1004243F8042B9F42F8D128684F
:1006500092F034FF45F8040BAF42F8D1DBF8B80054
:1006600005F0F0FC0346229A03EB83038AAD05EB09
:100670008303349843F8D42C0021529005F006FBF4
:10068000569035980021539005F000FB579036980E
:100690000021549005F0FAFA5890379800215590AF
:1006A00005F0F4FA5990DBF8780001F07DFE00289F
:1006B00000F09F84074B14931B6802930CE000BF6B
:1006C000FCA9F1D24D62703F72F97F3F17B7D13864
:1006D00000006145E821002000210D9805F0D6FAC0
:1006E00032460B9900942EAB01F0C2FD109D2146BD
:1006F0002A461EAB2EA800F0D7FFDBF8B80005F0A5
:10070000A1FC229C824628683CAB2146199300F14B
:10071000004038AB98460594049305F0B7FA0BEB0C
:100720008A03D3F8BC1006460298189305F0AEFA77
:100730004FF07E5105F0A2F90146304605F0A6FAC9
:1007400002460AF1FF3334AE46F8232005988AABFF
:100750004FF07E510AF1030A03EB8A0A05F08CF987
:10076000DBF8C020DBF878300592DBF8C4205AAC07
:100770000692DBF8CC2025464AF8E00C0794DBF81B
:10078000C8A04446CDF850B290469B460DF1F00902
:1007900052AF55F8046B0698E96805F077FA84467D
:1007A00005993046664605F071FA0146304605F077
:1007B00065F9E9690646504605F068FA0146304693
:1007C00005F05CF9E96A0646404605F05FFA014625
:1007D000304605F053F957F8046B49F8040BF968F3
:1007E000029805F053FA844659463046664605F0AD
:1007F0004DFA0146304605F041F95EABAB4244F894
:10080000040BC6D13CAA079C079200226AAE5AABE1
:1008100002961E46DDF850B20592139F0BF1BC0202
:1008200006921A94049B4FF0000853F8041B04939B
:10083000079B53F8040B079305F020F9069B56F825
:1008400004BB43F8040F0693949BCDE908761C463D
:100850004746D6F80CA0D6F81C90F56A029E0F9376
:10086000A168584605F012FAE1688046504605F046
:100870000DFA0146404605F001F9216980464846D7
:1008800005F004FA0146404605F0F8F86169804633
:10089000284605F0FBF90146404605F0EFF846F81A
:1008A00027000437102F04F11004D9D1DDE90876B0
:1008B0004FF0000808964646029B5AAC53F804BB1A
:1008C000D3F80CA0D3F81C90DD6A029354F8048B83
:1008D0005046E16805F0DAF902465946404690462E
:1008E00005F0D4F90146404605F0C8F8E1698046B4
:1008F000484605F0CBF90146404605F0BFF8E16AED
:100900008046284605F0C2F90146404605F0B6F893
:1009100047F826000436102ED8D1059B089E0133D7
:10092000042B059307F104077FF47CAF189B604804
:10093000D3F8BC10DDF850B21A9C93F0CCFC34AB69
:100940000746DBF8B8009846069305F07BFB39466E
:1009500006464FF07E5093F0E2FC2F364BF826000F
:10096000DBF8BC0005F06EFB03462F335BF8231069
:10097000504893F0B0FC0746DBF8BC0005F062FB82
:10098000394606464C4893F0CAFC2F364BF82600F1
:10099000DBF84C603499304605F078F93599824699
:1009A000304605F073F936998146304605F06EF908
:1009B0000346379930461D4605F068F9074658F852
:1009C000046B5046314605F061F9494620603046D7
:1009D00005F05CF929466060304605F057F903469A
:1009E0003946A360304605F051F938AB4345E06025
:1009F00004F11004E3D10BF10406B146139F79AC66
:100A00003C370DF5B27854F8040F58F8041F05F080
:100A100035F8A74249F8040FF5D1DBF8BC0005F022
:100A200011FB959A959B02F63C0200922F30959A05
:100A30000C9903F5A3635BF8200000F005FD044664
:100A4000DBF8040005F0FEFA03462F335BF82310B1
:100A5000119805F01BF90146204605F00DF80446F3
:100A6000DBF8000005F0EEFA2F3046995BF8200025
:100A700005F00CF90146204604F0FEFF0A9B814672
:100A8000002B1BDD0A9A2BAFDDF82C80039D07EBB2
:100A90008204294657F8040B05F0F8F80146484649
:100AA00004F0EAFFBC4248F8040BF2D106E000BFB4
:100AB000000080BFCDCC4CBD6666863F4FF000087D
:100AC000DBF8BC00CDF8D080CDF8D480CDF8D8804C
:100AD000CDF8DC8005F0B6FA959B959A03F6846311
:100AE000009381462F300C9902F536635BF82000A5
:100AF0000BF14005059500F0EDFD09F1FF3934AB30
:100B000043F82900DBF8B80005F09CFA034634AA44
:100B1000013B42F82380DBF8000005F093FA03461E
:100B20004746469A013B02F1004234A941F823208E
:100B3000DBF8040005F086FA5C46DDF81880CDF895
:100B400050B20696AB463E46119B013803F1004376
:100B500034AA42F82030349BDDF8D8900493359BBA
:100B6000DDF8DCA00293A168049805F08FF8E16835
:100B70000546029805F08AF80146284604F07EFFF3
:100B800021690546484605F081F80146284604F0EB
:100B900075FF61690546504605F078F858F8047B02
:100BA0000146284604F06AFF394605F06FF8014611
:100BB000304604F063FF1034A3450646D3D1DDF878
:100BC00050B23CAFDBF8481004F058FF3B460BF145
:100BD00014052F4680461D46069EDDF810B056F8D7
:100BE000041F584605F052F831690446029805F092
:100BF0004DF80146204604F041FF316A044648465C
:100C000005F044F80146204604F038FF316B0446F5
:100C1000504605F03BF80146204604F02FFF4146C0
:100C200005F0E8F8B74245F8040BD8D14046B24980
:100C300005F02CF80A9B8246002BDDF850B21EDD31
:100C40000B9B109A0DF174094D46144699461746B0
:100C50000A9903EB810659F8041B0E9804F00CFF67
:100C600044F8040B396805F011F8514605F0CAF94B
:100C7000003818BF01204E4505F8010BEBD10A9949
:100C80001DA800F00DFF0546002800F0AB810023F1
:100C90009A461E461F4699463C933D933E933F938A
:100CA000109B49461C68204604F0F0FF0146DBF823
:100CB000C00004F0E3FE3946CBF8C000204604F043
:100CC000E5FF0146DBF8C40004F0D8FE3146CBF85E
:100CD000C400204604F0DAFF0146DBF8C80004F047
:100CE000CDFE03465146CBF8C830204604F0CEFF77
:100CF0000146DBF8CC0004F0C1FECBF8CC00DBF8F9
:100D0000B80005F09FF903462F335BF823107B48AA
:100D100093F0E1FA0446DBF8B80005F093F90346D6
:100D200021464FF07E501C4693F0F9FA2F344BF8D1
:100D30002400DBF8BC0005F085F903462F335BF88F
:100D40002310002093F0C7FA0446DBF8BC0005F03E
:100D500079F9034621464FF07E501C4693F0DFFAA6
:100D600003462F344BF824304946404604F08EFFAA
:100D700039468146404604F089FF314607464046E1
:100D800004F084FF034651464046984604F07EFF37
:100D90000646CDF810A0CDF850B20F9CDDF814A097
:100DA000DDF864B002955BF8045B4846294604F020
:100DB0006DFF0146A06804F05FFE3946A06028463A
:100DC00004F064FF0146E06804F056FE4146E0602E
:100DD000284604F05BFF0146206904F04DFE0346FF
:100DE00031462361284604F051FF0146606904F052
:100DF00043FE103460605445D5D1029DDDF810A04B
:100E0000DDF850B245B11B9BDBF850100BEB8304AF
:100E1000606804F03BFF6060DBF8BC0005F012F98D
:100E2000DBF890600BEB800731460446D7F8BC0036
:100E300004F022FE00210546039805F0E3F830B1E6
:100E40002846002105F0DEF808B1C7F8BC60002193
:100E5000039805F0B9F8002840F0E280013C039BBC
:100E60003034CBF878305BF82430969A1360179BB7
:100E700002335BF8230093F0D3F9214904F006FF15
:100E8000979B18600E9BDBF88800CBF88030129B94
:100E9000CBF8D030169BCBF8D830159BCBF8DC3094
:100EA0002B9BCBF8D43001F07FFA002800F0A98109
:100EB0000023002403988BF89430CBF8984001F07D
:100EC00073FA00286BD0149B0C491D68284605F066
:100ED00071F800286BD0DBF8BC0005F0B3F800F126
:100EE0002F035BF82330CBF89C50CBF8A0309BF855
:100EF0009430002B6FD005E00000C842000080BF96
:100F00000000404000238BF89430DBF890300D9CBB
:100F1000CBF89C3000210398CBF89840CBF8845054
:100F200005F070F830B100210D9805F06BF800283D
:100F300040F0E080DBF8BC0005F084F803460021B7
:100F40002F3320465BF8236005F05CF830B10021B8
:100F50000D9805F057F8002840F0ED80039B989815
:100F6000CBF888300B9B0C991A682B9BCBF89060C0
:100F7000CBF88C1002604360C0F808A0C1600DF58A
:100F80000B7DBDE8F08FDBF8AC0021460C9005F03E
:100F90001BF800287FF4F9A80C94FFF7F6B8149B0F
:100FA000214603981D6805F00FF8002893D1DBF85F
:100FB000BC00CBF8A05005F045F800F12F035BF81A
:100FC0002330CBF8A450CBF89C309BF89430CBF86E
:100FD000A850002B96D10D98DBF8981004F04EFD28
:100FE000044697E7DDF8F0903D9F3E9EDDF8FCA0BB
:100FF00056E6DBF878500021284604F0E5FF00288B
:1010000040F029812846002104F0FCFF002800F070
:1010100047814FF07E530293B74B1493FFF75CBBAD
:101020002846002104F0D0FF002840F04681D7F880
:10103000BC603146002093F04EF90546DBF8BC0059
:1010400005F000F829460446AC4893F068F92F34BF
:101050004BF82400DBF8BC0004F0F4FF441EFEE66D
:10106000DBF8BC0004F0EEFF2F305BF82050DBF81B
:101070007010284604F0A8FFC8B1002E7FF7EEA933
:101080000B9BDBF85C80994603EB8605D9F80000E2
:10109000414604F0FBFD49F8040B4D45F6D1DBF861
:1010A000BC0004F0CFFF00F12F035BF8235028466B
:1010B000924904F089FF00283FF4D0A92946DBF8C3
:1010C000740004F081FF00283FF4C8A9002E7FF7C8
:1010D000C5A90B9BDBF86080994603EB8605D9F820
:1010E0000000414604F0D2FD49F8040B4D45F6D10D
:1010F000FFF7B4B9DBF8900001F056F9002840F092
:10110000C680DBF8BC0004F09DFF00F12F03DBF884
:1011100090405BF823602146304604F05FFF0028D2
:1011200040F04881DBF898400021204604F06AFF37
:1011300000283FF413AF2146DBF8680004F044FFB9
:1011400000283FF40BAFDBF89C10304604F094FC11
:10115000214604F04FFE31460446DBF8900004F0CF
:1011600051FF002840F0CE802046002104F02CFFE3
:10117000002840F0EC80DBF8BC0004F063FF00F1D5
:101180002F035BF82360E9E6959A959B02F5AD5035
:1011900003F5AC53183310304CAA53F8041F98428F
:1011A00042F8041BF9D1FFF7A6B87AAB2A46029899
:1011B0004CA9139300F0BEFE7A9B4FF001084693B2
:1011C0007B9B4793FFF7E7B8959B2A4603F5AB5106
:1011D0000298183100F070FF01230A9328AB109396
:1011E0002890FFF718B9959B2A4603F5AD51029850
:1011F000143100F061FF25AB01260B932590FFF71A
:1012000016B8DBF8880001F0CFF800282DD0149B29
:101210003B491C68204604F0CDFE00285FD10398AE
:1012200001F0C2F8002853D0149B35491D682846A8
:1012300004F0C0FE00283FF45AAE2046304904F0C6
:10124000B9FE00283FF434AE149B1D684FE601231D
:101250000A93FFF76CB92A4B0293274B1493FFF7BD
:101260003BBA4FF47F72FFF724B8DBF888400021C7
:10127000204604F0A9FE002831D12046002104F0C8
:10128000C1FE002800F0C7804FF07E54C7E7DBF8AE
:10129000BC0004F0D7FE00F12F035BF8236041E7A8
:1012A00000230293144B1493FFF716BA41462846C5
:1012B00004F0A0FD1290FFF7FCB8C7F8BC60B8E6D8
:1012C00028AB1093FFF7A7B825AB0B93FEF7AFBF82
:1012D0000021039804F078FE0028B5D0ADE703980C
:1012E00001F062F820B3149B05491C68204604F005
:1012F00061FE002893D1DBE5E8210020A4707D3F4A
:10130000000080BF284601F04FF800287FF42CAF82
:101310002146284604F06EFD92F07FFFDBF86C104A
:1013200004F066FE00287ED001238BF894301BE782
:101330000021039804F048FE00283FF4B9AD03985B
:1013400001F032F800283FF47FAF3E4C6CE7DBF849
:101350009030214603F1004004F04CFD0446DBF8D8
:10136000A40001F021F8002857D1DBF8A450DBF8E5
:1013700054100D9804F03EFD014620460C4604F042
:1013800085FC034621461C464FF07E5004F074FB5A
:10139000294604F07BFC214604F070FB0021044642
:1013A00004F012FE00283CD12346CBF88430CBF861
:1013B000A440E0E62146304604F05EFB0D9904F0BF
:1013C00019FD0446DBF8A80000F0EEFF38BBDBF89F
:1013D000A850DBF858100D9804F00CFD0646204686
:1013E000314604F053FC044631464FF07E5004F081
:1013F00043FB294604F04AFC214604F03FFB054626
:10140000DBF8BC00CBF8A85004F01CFE00F12F0361
:101410005BF8236086E6002401E72546A7E725461A
:10142000D7E70023C1E72946204604F0E3FC92F009
:10143000F4FEDBF86C1004F0DBFD00287FF474AFE1
:1014400092E600BF000080BF2DE9F04FD2F8009077
:10145000044685B050688846494615461E4604F045
:101460000BFB21460746484604F0C2FDD5F820A3F1
:101470005146002800F0E580204604F0B9FD2146E1
:10148000002800F0A880484604F09EFD002840F0A7
:101490009A800023D6F820134046039304F0F6FB0D
:1014A0000E9B0190D3F820231146029204F0E6FA35
:1014B000D6F81C138346404604F0E8FB0E9BD3F895
:1014C0001C1304F0DBFA0146584604F0D5FA8446B2
:1014D00051462046E24604F0CFFA0146504604F059
:1014E000D5FB394604F086FC029A114604F0C6FA90
:1014F000019904F0C3FA8246039B002B59D0494658
:10150000204604F0B9FA394604F074FC91F016FF55
:1015100081462968204604F0AFFA394604F06AFC97
:10152000494604F0A9FA05464FF07E50294604F0DA
:10153000A3FA4FF07E510746484604F09FFA04F0A4
:1015400081FD6FF0404A03464FF08041484603EB6F
:101550000A0904F093FA04F075FD824456F82A1043
:10156000284604F093FB034656F8291038461E46D9
:1015700004F08CFB0146304604F080FA414604F04A
:1015800085FB0E9B064653F82910384604F07EFB77
:1015900003460E9A284652F82A101D4604F076FBA0
:1015A0000146284604F06AFA0146304604F066FA1D
:1015B0008246204600F0F8FE08B14FF0000A50467F
:1015C00005B0BDE8F08F5146204604F0FDFC031E37
:1015D00018BF01235EE7484604F0F6FC002845D119
:1015E000002331684046029304F050FB02460E9BF4
:1015F000716840460192D3F800B004F047FB0E9B9F
:10160000596804F03BFA59468246019804F036FACC
:101610000146504604F030FA49468246204604F01E
:101620002BFA0146504604F031FB394604F0E2FB48
:10163000594604F023FA019904F020FA029B8246ED
:101640005BE7204604F0D4FC214600287FF41BAF62
:10165000484604F0B9FC30B15146204604F0B4FCD1
:1016600000287FF44CAF4FF0000AA2E75146204615
:1016700004F0AAFC031E18BF0123B2E7F8B5022448
:1016800009684F00002FC3E900140BDD0024061F7A
:10169000151F56F8040F92F0C0FD0134A74245F81B
:1016A000040FF6D1F8BD00BFF8B501244F681C60E7
:1016B0004968002F59600BDD0024061F151F56F8DE
:1016C000040F92F0AAFD0134A74245F8040FF6D1A9
:1016D000F8BD00BF2DE9F04FD2F80090044685B068
:1016E00050688846494615461E4604F0C5F921460D
:1016F0000746484604F07CFCD5F820A35146002854
:1017000000F0E580204604F073FC2146002800F03C
:10171000A880484604F058FC002840F09A80002336
:1017200003930E9B4046D3F8201304F0AFFAD6F88B
:10173000202301901146029204F0A0F90E9B8346EB
:10174000D3F81C13404604F0A1FAD6F81C1304F099
:1017500095F90146584604F08FF9844651462046D3
:10176000E24604F089F90146504604F08FFA394602
:1017700004F040FB029A114604F080F9019904F04C
:101780007DF98246039B002B59D04946204604F040
:1017900073F9394604F02EFB91F0D0FD814629689B
:1017A000204604F069F9394604F024FB494604F068
:1017B00063F905464FF07E50294604F05DF94FF07D
:1017C0007E510746484604F059F904F03BFC6FF09F
:1017D000404A03464FF08041484603EB0A0904F0B3
:1017E0004DF904F02FFC0E9B824453F82A10284632
:1017F00004F04CFA0E9B834653F82910384604F047
:1018000045FA0146584604F039F9414604F03EFADB
:10181000034656F8291038461F4604F037FA0346A7
:1018200056F82A1028461D4604F030FA014628468C
:1018300004F024F90146384604F020F98246204697
:1018400000F0B2FD08B14FF0000A504605B0BDE807
:10185000F08F5146204604F0B7FB031E18BF01234A
:101860005EE7484604F0B0FB002845D10023029310
:101870000E9B4046196804F009FA02460E9B40464A
:101880005968019204F002FA716804F0F7F8D6F88A
:1018900000B082465946019804F0F0F801465046DF
:1018A00004F0EAF849468246204604F0E5F801468D
:1018B000504604F0EBF9394604F09CFA594604F01E
:1018C000DDF8019904F0DAF8029B82465BE72046D6
:1018D00004F08EFB214600287FF41BAF484604F03D
:1018E00073FB30B15146204604F06EFB00287FF4B4
:1018F0004CAF4FF0000AA2E75146204604F064FBCB
:10190000031E18BF0123B2E700239C4610B4421EF9
:1019100012F8014F0CF10100013334B1022841F8F3
:101920002C3001DD10BC70478446032BF0D160469B
:1019300010BC70472DE9F0430C4693B0032C0746CA
:10194000DDE91A681546194600F0858000230C93DE
:101950000D930E930F9310931193230600F198802B
:10196000620012F0FF020FD00DF1180948469200F4
:1019700091F093FF494600230CAA51F8040B013360
:10198000A34242F8040BF8DB64B106AA06AB02EBF3
:10199000C40003EB84030EAA53F8041B834242F8ED
:1019A000041FF9D1284600F007FC0146384692F0A2
:1019B000B6FC0446284600F02DFC0146204692F075
:1019C0008AFC07462868394604F0F4FA0346003BCF
:1019D00018BF0123394668688DF8003004F0EAFA30
:1019E0000346003B18BF01233946A8688DF8013033
:1019F00004F0E0FA0346003B18BF0123684603A940
:101A00008DF80230FFF780FF041E2ED04FF0020346
:101A1000C8E900431CDD03A93346084606EB8405EC
:101A200050F8042B12AF07EB820252F81C2C43F83B
:101A3000042BAB42F4D106EBC40051F8042B12ACDA
:101A400004EB820252F8102C43F8042B9842F4D194
:101A500013B0BDE8F083043B14310CAA53F8040F13
:101A60008B4242F8040BF9D19CE73A46284601AB79
:101A70000CA900F05FFA01200221019A029BC8F82C
:101A80000000C8F804103260736013B0BDE8F08342
:101A90000DF118094FF47F72484691F0FEFE69E798
:101AA000421EC0F101039818814204DD12F8010FB3
:101AB0000028F8D170470120704700BF2DE9F04F92
:101AC00016464FF07E528FB0DDE9184BCBF8002060
:101AD0004FF080421D46CBF80420804640228946C4
:101AE0000BF10800194691F0D8FE2A6C0021CBF8C2
:101AF00048206A6CCBF84C20934ACBF85020AA6C53
:101B0000CBF85420EA6CCBF858202A6DCBF85C2037
:101B10006A6DCBF86020AA6DCBF86420EA6DCBF833
:101B200068202A6ECBF86C206A6ECBF87020AA6E03
:101B30008BF894100021CBF87420844ACBF87810ED
:101B40001268CBF87C10CBF88010CBF88420CBF84F
:101B50008820CBF88C20CBF89020CBF89810CBF8CD
:101B60009C20CBF8A020CBF8A420CBF8A820D4F858
:101B70002453D4F828732846394604F039FA00284B
:101B800040F0CF813946284604F01EFA002840F084
:101B9000D9803946284604F035FAAA4600B13D46B8
:101BA0003846D4F82C73394604F022FA002840F065
:101BB000BD813946504604F007FA30B93946284607
:101BC00004F020FA00B13D4657464FF0030A29467B
:101BD000304604F0F9F9002840F077813946304664
:101BE00004F010FA002840F09781CBF8AC7004F5AF
:101BF0004977CBF8B05038468BF8B4A000F0DCFA47
:101C00000146304692F08BFB0546384600F002FB59
:101C10000146284692F05FFB0546D4F82403294686
:101C200004F0C8F90246003A18BF01222946D4F848
:101C300028038DF81C2004F0BDF90246003A18BFB5
:101C400001222946D4F82C038DF81D2004F0B2F9A6
:101C50000246003A18BF01220BA907A88DF81E20E2
:101C6000FFF752FE002800F032810DDD0BAA08AD0F
:101C700002EB800052F8043B03F25D5354F823302A
:101C8000824245F8043BF5D1089F4846394603F0A7
:101C9000FDFF414603F0F2FE2D4A0546CBF8B82081
:101CA000D4F83083D4F83403414603F0E5FE02460D
:101CB000D4F8149529464846019204F08FF9294634
:101CC000002847D1404604F07FF9002840F0088101
:101CD0002946404604F08CF9002800F01F810023BB
:101CE000029304F5805ADAF8A811304603F0CEFFCB
:101CF000DAF890338146DAF8AC113046039303F0FA
:101D0000C5FFDAF8941303F0B9FE494682460398FA
:101D100003F0B4FE0146504603F0AEFE4146824653
:101D2000284603F0A9FE0146504603F0AFFF019993
:101D300004F060F8039903F0A1FE494603F09EFE0B
:101D4000814641E0BA462BE70000A040E821002090
:101D500000004040404604F037F9002840F0D380AE
:101D60000023029304F5805ADAF88C13304603F00E
:101D70008DFFDAF8742503901146059203F07EFE7C
:101D80000346DAF888133046049303F07FFFDAF84D
:101D9000701503F073FE0146049803F06DFE84464F
:101DA00049462846E14603F067FE0146484603F0EF
:101DB0006DFF019904F01EF8059A114603F05EFECE
:101DC000039903F05BFE8146029B002B5DD04146E8
:101DD000284603F051FEDDF80480414604F00AF87D
:101DE00091F0ACFA8146D4F83013284603F044FE53
:101DF000414603F0FFFF494603F03EFE80464FF0A8
:101E00007E50414603F038FE4FF07E5182464846F0
:101E100003F034FE04F016F902464FF080414846C4
:101E200004EB820903F02AFE04F00CF904EB8003B2
:101E300003F58053D3F8A4114046019303F026FF25
:101E400009F580590446D9F8A411504603F01EFF45
:101E50000146204603F012FE314603F017FFD9F881
:101E60008C130446504603F011FF019B0646D3F83D
:101E70008C13404603F00AFF0146304603F0FEFD96
:101E80000146204603F0FAFD8146284600F08CFA10
:101E900008B14FF000090022CBF8C020CBF8C420D5
:101EA000CBF8C8204FF081421A9BCBF8CC90CBF8EE
:101EB000D070CBF8D470CBF8D870CBF8DC70CBF8FE
:101EC000BC201D600FB0BDE8F08F2E468DE604F5F6
:101ED000AB5138462A46183100F0EEF80746D4E6F2
:101EE0002946484604F08EF80246131E18BF012307
:101EF00029464046029304F05DF800287FF4F1AED5
:101F00004FF0000960E72946484604F07BF8031EBD
:101F100018BF0123029325E73E4666E64FF000090D
:101F2000B3E72F462E464FF0010A5EE657464FF0C4
:101F3000020A4CE62DE9F04F83468BB0039304ACC4
:101F40000B1F0192143153F8042F994244F8042BCB
:101F5000F9D1DBF80830DBF800800293ABF1040420
:101F60000BF1080654F8040F00F01EFA38BBA64225
:101F7000F8D1DBF80440DBF800502046294604F095
:101F800023F8DDF818A0DDF82490049F079E40B1E7
:101F900032463B464E46574691469A46DBF8088005
:101FA0000295089B0198DDF814B0009300F0FCF94D
:101FB00040B1404B1D682846039B58601D600BB024
:101FC000BDE8F08F029D4146284603F055FD0346CB
:101FD00041462046029303F04FFD03462146284622
:101FE0001D4603F049FD39460446584603F044FDBA
:101FF000294603F0FFFE034659469B46504603F030
:102000003BFD214603F0F6FE594603F035FD0299EB
:1020100003F0F0FE31468246009803F02DFD29467C
:1020200003F0E8FE034648469946009903F024FD74
:10203000214603F0DFFE494603F01EFD029903F03E
:10204000D9FE034641460198984603F015FD5146D6
:102050000446284603F01AFE0146584603F00CFDDC
:102060000346214650469A4603F010FE014650466C
:1020700003F004FD214603F009FE394603F0FEFC9F
:102080000346414628461D4603F000FE01464846E9
:1020900003F0F2FC21460746404603F0F7FD0146F7
:1020A000384603F0EBFC214603F0F0FD314603F027
:1020B000E5FC81E7E82100202DE9F04F05460E46BA
:1020C00091468B6883B00768D1F800A0D0F808B0BB
:1020D0000193041F00F1080354F8040F009300F06B
:1020E00063F9C8B9009BA342F6D16C68D5F80080AB
:1020F0002046414603F068FF28B1C3463368AF6805
:10210000D6F808A001934846D6F8048000F04CF9B0
:1021100030B1284BD3F80080404603B0BDE8F08FC3
:102120003946204603F0A8FC06465146404603F0D7
:10213000A3FC314603F05EFE39460546584603F0DF
:102140009BFC034641460198984603F095FC0346E4
:10215000214658461C4603F08FFC0146204603F0FA
:1021600049FE294603F088FC414603F043FE03463E
:10217000394648461F4603F07FFC39460446304640
:1021800003F084FD0146284603F076FC214605460F
:10219000384603F07BFD0146284603F06FFC2146DC
:1021A00003F074FD514603F069FC8046404603B0DD
:1021B000BDE8F08FE8210020F8B50446006800F083
:1021C000F3F850B1606800F0EFF800B3A06800F0D9
:1021D000EBF8C8B9A5682846F8BD02262568043C76
:1021E00054F826702946384603F00CFF50B9022EE9
:1021F00006D1E4682846214603F0E6FE00B12546F4
:102200002846F8BD3D46F2E725682846F8BD032676
:102210006568E4E7F8B50446006800F0C5F850B119
:10222000606800F0C1F800B3A06800F0BDF8C8B95C
:10223000A5682846F8BD02262568043C54F8267097
:102240002946384603F0C0FE50B9022E06D1E46894
:102250002846214603F0D6FE00B125462846F8BDA3
:102260003D46F2E725682846F8BD03266568E4E7A1
:102270002DE9F04F012A8BB015461F46019033D04F
:10228000002A27DD00240E1F0DF10C0A0DF11C0B96
:102290000DF1100956F8040F04F101084BF8240061
:1022A0000AF8018B91F0B9FF454549F824004446EE
:1022B000F0D1049E059C3146204603F0A3FEE8B908
:1022C000032D60D13146069803F09CFE00285AD0B9
:1022D00002231DE0079891F0A0FF0123149AC2E9A0
:1022E00000350BB0BDE8F08F149B1A605A60096886
:1022F00003F080FD38600BB0BDE8F08F032D44D1B2
:102300002046069903F060FE002814BF0223012333
:102310000AAA02EB830228336B4413F81C3C52F8E0
:102320000C6C8DF80C30304691F077FF044628464F
:1023300003F058FC184903F0A9FC214603F0A6FC61
:10234000214603F055FEAC0022460021F8B948466C
:1023500091F0CAFA31469DF90C600AAB0198013E32
:1023600003EB860603F046FD46F8180C149B224644
:102370005D600123149C49463846236091F08DFA34
:102380000BB0BDE8F08F079ECDE70123C0E74846BC
:1023900091F0AAFAEAE700BF0000A0350B68836459
:1023A0004B68C364704700BF08B502F0C1FF024626
:1023B0000B4603F0AFFA003818BF012008BD00BF7C
:1023C000D0F88400704700BF2DE9F04F764C93B0F1
:1023D00027680446D0F888000D4616469946FFF750
:1023E000E3FF28B90021D4F8880003F001FE18B1FA
:1023F000384613B0BDE8F08F0021D4F8980003F000
:10240000D9FD0028F4D107AB0DF130080193CDF8C8
:10241000008009F5AC53043394F8B410D4F88C0060
:1024200009F54972FFF786FA079B002B039340F3E7
:102430009F800DF1240B08EB83090494CA465C4687
:102440009A00059258F8040B59F8041B03F016FB88
:10245000D04544F8040BF5D1049C002D59D0D4F894
:102460009080D4F8A010404603F006FBD4F89810F2
:1024700003F0C0FC0021054603F0A6FD0028B7D1FB
:102480002846002103F096FD0028B1D141464FF0C7
:102490007E5003F0F1FA294603F0ACFC002182469D
:1024A00003F092FD0028A3D1D4F88810304603F041
:1024B000A1FC05F09DF9039B0546002B71DD0DF194
:1024C0001809CB464FF00008039B09AC04EB8306C8
:1024D0002068294600F1004003F0D8FB414644F84B
:1024E000040B03F071FD003818BF0120A6420BF861
:1024F000010BEDD1002203984B4690427FF778AF55
:1025000019780132002946D0904203F10103F7DC2B
:102510006EE7D4F88810304603F06CFC05F068F9DB
:102520000DF11809C84600250446059E5E44DBF8F7
:102530000000214600F1004003F0A8FB29464BF8BB
:10254000040B03F041FD003818BF0120B34508F823
:10255000010BECD1002203984B468242BFF648AFF4
:102560001978013289B1824203F10103F8DB3FE7B8
:10257000002D7FF474AFD4F88810304603F03AFC95
:1025800005F036F90DF11809E4E70021099803F088
:1025900075FA07462CE75046099903F06FFA07468B
:1025A00026E70DF11809A5E7E821002010B1024B3C
:1025B000C0F8E430704700BF3412CDAB30B1D0F872
:1025C000E400034BC01AB0FA80F04009704700BF26
:1025D0003412CDAB00285BD0F0B5C36804460F467B
:1025E000A1B0E3B12C4D14220021284691F07CF9D2
:1025F0002A4B4FF07E52EB602B61002366696A60C4
:10260000AA602B708EB13046FFF7D8FF50B1E82298
:102610003146234891F041F9002021B0F0BD4369D3
:10262000002BDFD16FF01500F7E71D4DE822314692
:10263000284691F059F91B496C2205A891F02DF913
:10264000E168C5F8E01023698BB11A6817925A68DF
:1026500018929A681992DA681A921A691B925A6942
:102660001E929A691F929A6A1C92DB6A1D930195C9
:10267000A268009104A902916168206805ABFFF788
:102680001DFA0FB1049B3B600548FFF78FFFC3E7BE
:102690006FF01500704700BF24BB00200000C07F12
:1026A00038BB0020CC070C002DE9F04F0029A9B061
:1026B0000D46804691469A46329E3E4F02DB7B781D
:1026C000002B3CD03C4BFC681B6821460B933B4BDA
:1026D00020461B680C9303F09FFC10B93B78022B3B
:1026E00004D02846796803F0D1FA0446344D0BA98A
:1026F0002846FFF753FE3B78052B0DAB2BD00DF191
:10270000280BCDE903B30095D5F8E01040460191C0
:1027100009A90291534621464A46FDF71DFD294964
:10272000099803F0B3FA3EB10E9B0D9A7360109BAB
:102730003260F460B360306129B0BDE8F08F224BA5
:1027400008461B68B9680B93204B1B680C9303F079
:102750009DFA0446CAE718466C221D49079391F07A
:102760009CF86A6D00211F92AA6D28462092EA6D9E
:102770000DF1280B21922A6E22926A6E23922A6F03
:1027800026926A6F2792AA6E2492EA6E2592E02220
:1027900091F0AAF80195D5F8E020079B0092214618
:1027A0004A464046CDF808B0FFF788F90022079B5B
:1027B0003A70A6E724BB0020F4210020F02100207D
:1027C00038BB00200000C842FC210020F821002076
:1027D000CC070C000148FFF7F3BD00BF38BB002059
:1027E00070B50D4D2C692146204603F015FC78B9D3
:1027F0002B78032B0AD9042B0AD10146074822461D
:10280000BDE87040D0F8E030FFF7DEBD012B01D805
:10281000034870BD0121F1E724BB002038BB002034
:102820000000C07F10B5062865D8DFE800F0191D4C
:1028300021293C4D040000295DD00C68214620462A
:1028400003F0EAFB002856D12046002103F0B2FB3A
:10285000002850D1002C294B49DA1C61002010BD02
:102860000122264B5A70F9E70022244B5A70F5E7F3
:10287000002940D00B78052B3DD8204A1370EDE796
:10288000002938D00C682146204603F0C5FB0028FB
:1028900031D1002C2FDB2046002103F08BFB50BBF5
:1028A000164B5C60DAE731B30C682146204603F032
:1028B000B3FB00BB002C1EDB2046002103F07AFB9B
:1028C000C8B90E4B9C60C9E7A9B10C6821462046E7
:1028D00003F0A2FB78B92046002103F06BFB50B94E
:1028E000064B002CA8BF04F10044DC60B6E704F1FD
:1028F00000441C61B2E76FF0150010BD24BB00203E
:1029000080EA101404F0F01480EA0410604081EAB8
:10291000111404F0F01481EA0411614082EA1214E7
:1029200004F0F01482EA0412624083EA131404F003
:10293000F01483EA0413634080EA102404F47F4413
:1029400080EA0420604081EA112404F47F4481EA93
:102950000421614082EA122404F47F4482EA0422C2
:10296000624083EA132404F47F4483EA042363402F
:1029700081EA500404F0553480EA4400614083EA5F
:10298000520404F0553482EA4402634082EA90041F
:1029900004F0333480EA8400624083EA910404F056
:1029A000333481EA84016340704700BF82EA9004B7
:1029B00004F0333480EA8400624083EA910404F036
:1029C000333481EA8401634081EA500404F05534D1
:1029D00080EA4400614083EA520404F0553482EAFC
:1029E0004402634080EA102404F47F4480EA042017
:1029F000604081EA112404F47F4481EA04216140AB
:102A000082EA122404F47F4482EA0422624083EAC8
:102A1000132404F47F4483EA0423634080EA1014FF
:102A200004F0F01480EA0410604081EA111404F00C
:102A3000F01481EA0411614082EA121404F0F014E7
:102A400082EA0412624083EA131404F0F01483EA69
:102A500004136340704700BF2DE9F14F94464FEADD
:102A6000930B8A68CB6808684968FFF749FF0BF148
:102A7000060E33E083EA134480EA134582EA1347E3
:102A800046BA96EA3444604000F00F1684EA0634F1
:102A900020F00F1684EA161054BA94EA0106724028
:102AA00002F00F1486EA043622F00F1486EA14129C
:102AB0004CBA6540694001F00F1485EA043521F0F5
:102AC0000F1485EA14115CBA67407B4003F00F14C1
:102AD00087EA043723F00F1487EA1413BCE8F000E8
:102AE0006040694072407B4000F0E03400F01035F7
:102AF00000F00F3040EA540040EAC50080EA90043C
:102B000004F0332480EA8400604001F0E03401F0F6
:102B1000103501F00F3141EA540141EAC50181EA63
:102B2000910404F0332481EA8401614002F0E0342E
:102B300002F0103502F00F3242EA540242EAC502B6
:102B400082EA920404F0332482EA8402624003F0B1
:102B5000E03403F0103503F00F3343EA540343EA43
:102B6000C50383EA930404F0332483EA84036340B7
:102B700081EA324787EA134581EA354690EA06043E
:102B800084EA034B82EA1B4280EA044484EA054457
:102B900083EA144A85EA14448BEA044B84EA3744F6
:102BA00081EA0B4181EA164104EA0A00454082EAC3
:102BB00004082BEA080041408AEA0B0602EA0600F4
:102BC00084EA34438AEA3A4603EA060778404540F5
:102BD000414088EA38478BEA3B4007EA000985EA2A
:102BE000090583EA0709464006EA0906714085EAB5
:102BF000010005EA3546464006EA314181EA3041A6
:102C000081EA364606EA304686EA3546344008EA26
:102C1000010886EA01052A4086EA364003405A4008
:102C200081EA31431F407C4080EA030709EA070933
:102C300088EA0908544088EA020806EA0A0601EA16
:102C40000B018AEA0B0215408AEA3A4210404540DD
:102C50008BEA3B4003405E404240174079404D4084
:102C60004E40E443F64386EA18435D4085EA05405A
:102C700083EA134386EA034183EA384284EA114334
:102C800083EA04435FEA3343BEF1010E3FF6F2AE3E
:102C90001ED4BCE8F0006040694072407B4020BC1C
:102CA000FFF784FE28606960AA60EB60BDE8F08FE2
:102CB0002DE9E0414FF2F00280EA1031114080EA44
:102CC0000130484041088208C3084FF0000E4FE72A
:102CD00000F0113001F0113102F0113203F0113324
:102CE00040EA410040EA820040EAC3004FF2F002AD
:102CF00080EA1031114080EA01304840BDE8E081AF
:102D00002DE9F04F02F11C050646074600EB850849
:102D100051F8040B043A46F8040BF9D14FF0010CBA
:102D2000FFF7C6FF5FEA302080EA0C001ECF41406B
:102D30004A4053405C401EC62000464517D04FEA2B
:102D40004C0C1CF4807F18BFACF1E50C2C2DE7D0A7
:102D50003C2D06D1FFF7ACFF06CF41404A4006C6E6
:102D6000100006CF41404A4006C61000D8E736E9B9
:102D70000F00FFF7C5FD043D86E80F00F7D1BDE861
:102D8000F08F00BF2DE9F14F03F11C0402EB840C1E
:102D90004FEA930B8A68CB6808684968FFF7B0FD73
:102DA0003CE9F0006040694072407B400BF1060E48
:102DB0004EE083EA134480EA134582EA134746BA99
:102DC00096EA3444604000F00F1684EA063420F09E
:102DD0000F1684EA161054BA94EA0106724002F003
:102DE0000F1486EA043622F00F1486EA14124CBA45
:102DF0006540694001F00F1485EA043521F00F1495
:102E000085EA14115CBA67407B4003F00F1487EA2F
:102E1000043723F00F1487EA141344BA44404DBA20
:102E20004D4056BA56405FBA5F4087EA174886EA77
:102E3000174B84EA17464FEA38488BEA1B4485EA69
:102E40001B4788EA1B4580EA3440694072407B405A
:102E500000F0703400F0803500F00F3040EA44009C
:102E600040EAD50080EA900404F0332480EA84002C
:102E7000604001F0703401F0803501F00F3141EA1B
:102E8000440141EAD50181EA910404F0332481EA46
:102E90008401614002F0703402F0803502F00F329C
:102EA00042EA440242EAD50282EA920404F0332460
:102EB00082EA8402624003F0703403F0803503F04C
:102EC0000F3343EA440343EAD50383EA930404F04F
:102ED000332483EA84036340C943DB4381EA00046B
:102EE00083EA044686EA020183EA014382EA334523
:102EF00083EA14435C4084EA00077FEA040A8AEA12
:102F0000024A8AEA010B87EA11488AEA374A80EACC
:102F1000060181EA1A418AEA030A04EA0A004540E6
:102F200088EA040707EA0B0041408AEA0B0608EA30
:102F3000060084EA34428AEA3A4602EA0603584026
:102F40004540414087EA37438BEA3B4003EA0009AA
:102F500085EA090582EA0309464006EA0906714046
:102F600085EA010005EA3546464006EA314181EA34
:102F7000304181EA364606EA304686EA3546344034
:102F80000F4086EA010508EA050886EA3640024055
:102F900088EA020881EA314213405C4080EA020379
:102FA00009EA030987EA0907674088EA040806EA8C
:102FB0000A0601EA0B018AEA0B0425408AEA3A4430
:102FC000204045408BEA3B4B02EA0B02564084EA24
:102FD0000B04234059406E40694087EA364080EA3E
:102FE000384080EA060380EA104481EA134585EA06
:102FF000344585EA17427D4082EA354180EA054042
:103000003CE9F0006040694072407B40BEF1010E37
:103010003FF6CFAE20BCFFF7C9FC28606960AA600C
:10302000EB60BDE8F08F00BFFFF76ABE2DE9F00747
:1030300091E8F807B2E802105B1854EB0C04B2E810
:1030400002104D4156EB0C06B2E802104F4158EB0E
:103050000C08B2E8021059EB01095AEB0C0A80E89F
:10306000F80780410130BDE8F00770472DE9F0070F
:1030700091E8F807B2E802105B1A74EB0C04B2E8AE
:1030800002108D4176EB0C06B2E802108F4178EB0E
:103090000C08B2E8021079EB01097AEB0C0A80E81F
:1030A000F80780414042BDE8F00770472DE9F0077E
:1030B000524290E87800B1E880071740DB1918EA1F
:1030C000020854EB080419EA020955EB09051AEA4B
:1030D000020A56EB0A0678C090E87800B1E880074B
:1030E00017407B4118EA020854EB080419EA020968
:1030F00055EB09051AEA020A56EB0A0678C0804128
:103100000130BDE8F00770472DE9F007524290E822
:103110007800B1E880071740DB1B18EA020874EB5F
:10312000080419EA020975EB09051AEA020A76EBA6
:103130000A0678C090E87800B1E880071740BB41E4
:1031400018EA020874EB080419EA020975EB09058C
:103150001AEA020A76EB0A0678C080414042BDE8CE
:10316000F00770472DE9F00152424FF0040890E853
:10317000300091E8C000A31B1340E41AF618EB1BC3
:103180001340ED1AFF1830C0C0C1B8F10108EED1EC
:10319000BDE8F001704700BF00B592E8DC072DE9FB
:1031A000DC07B1E8805702B4A7FB02510A95A8FBDF
:1031B000020BE7FB6310E9FB62B00B91A8FB035124
:1031C000EAFB6201E7FB64B5E7FB6605E8FB661511
:1031D000CDF830B0A9FB03B6EAFB6316ECFB6356EF
:1031E000E8FB640BE9FB641BEAFB645BECFB646BD0
:1031F0000D90ACFB0230059CEEFB6250E9FB646075
:10320000EAFB64B0E7FB6431E8FB6451069CE8FB31
:103210006461E9FB64B1EAFB64010E93A7FB04322D
:10322000079CE7FB6462E8FB64B2E9FB6402EAFB2B
:103230006412049CE9FB6453EAFB6463089CE7FBAB
:1032400064B3E8FB6403E9FB6413EAFB64230F95B2
:103250005DF8049B99E80006DDF80080A9FB08549E
:10326000EAFB68B4DDF81080ECFB6804EEFB681440
:10327000E9FB6824EAFB6834DDF80480EEFB68654E
:10328000E9FB68B5EAFB6805DDF81480ECFB68151E
:10329000EEFB6825E9FB6835EAFB68450F96DDF82B
:1032A0000880AEFB0876E9FB6806EAFB6816DDF8E5
:1032B0001880ECFB6826EEFB6836E9FB6846EAFB03
:1032C0006856DDF80C80ECFB68B7EEFB6807E9FB9D
:1032D0006817EAFB6827DDF81C80ECFB6837EEFB1B
:1032E0006847E9FB6857EAFB686708B000BD00BFA4
:1032F0002DE9F14F87B0FFF74FFFDDF81C8008F193
:10330000200888E8FF00FFBC87E87F08BDE8F08F51
:1033100000B591E89857A3FB03520195A3FB040164
:10332000E3FB6420E3FB67100292A3FB0752E3FB7D
:103330006802E4FB6415E3FB6805E3FB6925039180
:10334000A4FB07B6E3FB6926E3FB6A56E4FB670BC5
:10335000E4FB682BE3FB6A5BE3FB6C6B0490A4FB70
:103360000810E4FB6950E3FB6C60E3FB6EB0E7FB25
:103370006721E4FB6951E4FB6A61E3FB6EB1E4FBA6
:103380006E010592A7FB0832E4FB6A62E4FB6CB2B3
:10339000E4FB6E02E7FB6E12E7FB6853E7FB696331
:1033A000E4FB6CB3E7FB6C03E7FB6E13E8FB6E23F7
:1033B0000695A7FB0954E7FB6AB4E7FB6C04E8FB3E
:1033C0006C14E8FB6E24E9FB6E34E8FB6865E7FBF0
:1033D0006AB5E8FB6A05E8FB6C15E9FB6C25E9FBBF
:1033E0006E35EAFB6E450796A8FB0976E8FB6A0690
:1033F000E9FB6A16E9FB6C26EAFB6C36EAFB6E46D3
:10340000ECFB6E56E8FB69B7E9FB6907E9FB6A1755
:10341000EAFB6A27EAFB6C37ECFB6C47ECFB6E5768
:10342000EEFB6E6700BD00BF2DE9F14F87B0FFF7DF
:103430006FFFDDF81C8008F1200888E8FF00FFBC62
:1034400087E87F08BDE8F08F2DE9F04FB0E8FE0770
:1034500083B02DE9010790E8005F4FF00A00069065
:103460000198DB199CEA030C18EB3C4897EA080723
:1034700013EB375393EA3C4C18EB3C6898EA375708
:1034800024189EEA040E19EB3E4990EA090014EB59
:10349000305494EA3E4E19EB3E6999EA3050CDE93A
:1034A0000489DDE9028949199AEA010A18EB3A48C8
:1034B00095EA080511EB355191EA3A4A18EB3A685A
:1034C00098EA355592199BEA020B19EB3B4996EAAB
:1034D000090612EB365292EA3B4B19EB3B6999EA2B
:1034E000365613EB706393EA3B6B18EB3B4898EA54
:1034F000706013EB305393EA3B4B5FEA3B6B18EB86
:103500000B0898EA30505FEA706014EB756494EA37
:103510003C6C19EB3C4999EA756514EB355494EA17
:103520003C4C5FEA3C6C19EB0C0999EA35555FEAB3
:103530007565CDE90289DDE9048911EB766191EACF
:103540003E6E18EB3E4898EA766611EB365191EAEA
:103550003E4E5FEA3E6E18EB0E0898EA36565FEA7A
:10356000766612EB776292EA3A6A19EB3A4999EA7F
:10357000776712EB375292EA3A4A5FEA3A6A19EBF6
:103580000A0999EA37575FEA776701900698013888
:103590007FF465AF01BC80E8005FBDE8000700E98B
:1035A000FE0703B0BDE8F08F30B44FF0000310F811
:1035B000014B11F8015B013A84EA050443EA040374
:1035C000F5D1A3F101034FEAD37030BC704700BFBF
:1035D0004FF0000310F8012B013943EA0203F9D13F
:1035E000A3F101034FEAD370704700BF30B411F864
:1035F000014B12F8015B6C4000F8014B013BF6D126
:1036000030BC70472DE9F00791E8F807B2E80210E6
:103610005B1854EB0C04B2E802104D4156EB0C065B
:10362000B2E802104F4158EB0C08B2E8021059EB17
:1036300001095AEB0C0A8941B3F1FF3374F1FF34ED
:1036400075F1FF3576F1000677F1000778F1000893
:1036500079F101097AF1FF3A51F100015B184C410F
:103660004D4156F1000657F1000758F1000859EB9B
:10367000D1795AEB010A80E8F807BDE8F0077047F6
:103680002DE9F00791E8F807B2E802105B1A74EB35
:103690000C04B2E802108D4176EB0C06B2E8021081
:1036A0008F4178EB0C08B2E8021079EB01097AEB54
:1036B0000C0A89415B184C414D4156F1000657F107
:1036C000000758F1000859EBD1795AEB010A80E85C
:1036D000F807BDE8F007704718EB040859EB050937
:1036E0005AEB060A5BEB070B5FF0000C4CF1000C89
:1036F00018EB050859EB06095AEB070A5BEB070BB9
:1037000050EB0C005FF0000C51EB0C0152EB0C0283
:1037100063414CF1000CB8EB070879F100097AF12C
:10372000000A7BEB040BA841B141A241B3416CF10B
:10373000000CBBEB050BB041B941AA41BB416CF198
:10374000000C4CF001068CF0020718EB060859EB50
:103750006C095AEB6C0A7BEB6C0B70EB6C0471EB35
:103760006C0572EB670653EB6C076CEB6C0C18EB9B
:103770000C0059EB0C015AEB0C025BF1000354F105
:10378000000455F1000556EBDC7657EB0C0770474B
:103790002DE9F14F87B0FFF7FFFCDDF81080DDF871
:1037A0001490DDF818A0FFF797FFBDE8000FFFF7B2
:1037B00093FF03B05DF8048B88E8FF00BDE8F08F4D
:1037C0002DE9F14F87B0FFF7A3FDDDF81080DDF89C
:1037D0001490DDF818A0FFF77FFFBDE8000FFFF79A
:1037E0007BFF03B05DF8048B88E8FF00BDE8F08F35
:1037F0002DE9F14FF8C892E8005E19EB03095AEB86
:10380000040A5BEB050B5CEB060C4EEB070E91E834
:10381000E001A9FB0502AAFB0543E9FB6624EAFBDC
:103820006634A9FB0765E9FB6845B1E80003EBFBDB
:103830006836ECFB6846EEFB6856ABFB0987ECFB91
:103840006957EEFB696791E80202EAFB6148EBFB0E
:103850006158ECFB6168EEFB61784FF00001EAFB18
:103860000951EBFB6961ECFB6971EEFB69814FF477
:10387000A03C4FEA154949EA06495FF0000AE9FB16
:103880000C0A4FEA164646EA0746E6FB6C2A4FEA60
:10389000174747EA0847E7FB6C3A4FEA184848EAF7
:1038A0000148E8FB6C4AADB25544AF0805F003058A
:1038B00007EB8707C01952F1000153F1000254F1E0
:1038C000000345F1000420BC1FC5BDE8F08F00BF18
:1038D00030B490E83C10511D53F1000154F1000147
:1038E00055F100014CF100014FEA9101494201F00C
:1038F0000501521853F1000354F1000455F100057D
:103900004CF1000C0CF0030C80E83C1030BC70470C
:103910002DE9F04F90E8F00F00F140004FF0040E59
:1039200059E0F0B4826BC36B0468052524268759DF
:103930003C444FEA724787EAF24787EA92273C44C1
:1039400042684FEAF21787EAB24787EAD2073C4457
:1039500040F8044B032D08BF6FF01B0687593A440B
:103960004FEA734787EAF34787EA93273A44436865
:103970004FEAF31787EAB34787EAD3073A4440F898
:10398000042B87593B444FEA744787EAF44787EA98
:1039900094273B4444684FEAF41787EAB44787EA20
:1039A000D4073B4440F8043B013DC0D1A0F13C00AA
:1039B000076A3C444FEA724787EAF24787EA922750
:1039C0003C4402684FEAF21787EAB24787EAD20717
:1039D0003C44C463F0BC4FF0020288EA781C8CEAD5
:1039E000F84C0BEBBC1C8AEA090303EA080383EAE0
:1039F0000A039C4450F8043B9C4451F8043B9C440B
:103A0000674444EA050B0BEA060B04EA05034BEA9C
:103A1000030BE34484EAF42383EA34530BEBB30B44
:103A200087EA771C8CEAF74C0AEBBC1C89EA08038E
:103A300003EA070383EA09039C4450F8043B9C44CF
:103A400051F8043B9C4466444BEA040A0AEA050A1E
:103A50000BEA04034AEA030AE2448BEAFB2383EA03
:103A60003B530AEBB30A86EA761C8CEAF64C09EB68
:103A7000BC1C88EA070303EA060383EA08039C44A4
:103A800050F8043B9C4451F8043B9C4465444AEA8A
:103A90000B0909EA04090AEA0B0349EA0309E144AC
:103AA0008AEAFA2383EA3A5309EBB30985EA751CDB
:103AB0008CEAF54C08EBBC1C87EA060303EA050315
:103AC00083EA07039C4450F8043B9C4451F8043BB0
:103AD0009C44644449EA0A0808EA0B0809EA0A0314
:103AE00048EA0308E04489EAF92383EA395308EBFA
:103AF000B30884EA741C8CEAF44C07EBBC1C86EA1D
:103B0000050303EA040383EA06039C4450F8043BDC
:103B10009C4451F8043B9C44E34448EA090707EA03
:103B20000A0708EA090347EA0307674488EAF82313
:103B300083EA385307EBB3078BEA7B1C8CEAFB4C18
:103B400006EBBC1C85EA040303EA0B0383EA0503C6
:103B50009C4450F8043B9C4451F8043B9C44E24490
:103B600047EA080606EA090607EA080346EA0306E2
:103B7000664487EAF72383EA375306EBB3068AEAFB
:103B80007A1C8CEAFA4C05EBBC1C84EA0B0303EAB2
:103B90000A0383EA04039C4450F8043B9C4451F814
:103BA000043B9C44E14446EA070505EA080506EAA9
:103BB000070345EA0305654486EAF62383EA36539C
:103BC00005EBB30589EA791C8CEAF94C04EBBC1CC3
:103BD0008BEA0A0303EA090383EA0B039C4450F8C7
:103BE000043B9C4451F8043B9C44E04445EA0604F1
:103BF00004EA070405EA060344EA0304644485EA88
:103C0000F52383EA355304EBB304013A7FF4E5AEC0
:103C1000A0F14000BEF1010E7FF483AEA0F1400C94
:103C20009CE80F00001949199219DB19ACE80F0044
:103C30009CE80F004044494452445B44ACE80F0008
:103C4000BDE8F08F2DE90050ACF1400288B0C3CA46
:103C5000CDE90001B2E80303CDE90201B2E8300C7E
:103C6000CDE90445B2E80350CDE9060184EAD46009
:103C700080EA451085EAD56181EA441180EA141092
:103C800080EA057081EA151181EA04711CEB903C11
:103C90004EEB913E1CEB814C4EEB804EDDE9062352
:103CA00082EA0A0083EA0B01204029405040594033
:103CB0001CEB000C5EEB010E0A980899D0E9004558
:103CC0001CEB040C5EEB050ED1E900451CEB040C6B
:103CD0005EEB050E18EB0C0859EB0E09D0E9024516
:103CE00012196B41D1E9024512196B41DDE9044516
:103CF0008AEA04008BEA050110EA080011EA0901CA
:103D000090EA0A0091EA0B0112184B4188EAD86048
:103D100080EA491089EAD96181EA481180EA1810DD
:103D200080EA097081EA191181EA087112EB903278
:103D300043EB913312EB814243EB8043CDE9062301
:103D4000DDE90023DDE9024582EAD22080EA435022
:103D500083EAD32181EA425180EA921080EA8360AB
:103D600081EA931181EA82611CEB107C4EEB117E9B
:103D70001CEB011C4EEB001E82EA0601324001EAF8
:103D8000040050401CEB000C01EA0C00504083EA98
:103D900007023B4012EA050159405EEB010E02EAC0
:103DA0000E015940DDE90623A4185D41CDE9024525
:103DB00012184B418CEADC2080EA4E508EEADE215C
:103DC00081EA4C5180EA9C1080EA8E6081EA9E1163
:103DD00081EA8C6112EB107243EB117312EB01124A
:103DE00043EB0013CDE9062384EAD46080EA451052
:103DF00085EAD56181EA441180EA141080EA0570F1
:103E000081EA151181EA04711AEB903A4BEB913B70
:103E10001AEB814A4BEB804BDDE9042382EA080070
:103E200083EA090120402940504059401AEB000A1A
:103E30005BEB010B0A980899D0E904451AEB040AD8
:103E40005BEB050BD1E904451AEB040A5BEB050BB0
:103E500016EB0A0657EB0B07D0E9064512196B4122
:103E6000D1E9064512196B41DDE9024588EA0400F3
:103E700089EA05013040394090EA080091EA0901D9
:103E800012184B4186EAD66080EA471087EAD7616C
:103E900081EA461180EA161080EA077081EA17115C
:103EA00081EA067112EB903243EB913312EB8142BF
:103EB00043EB8043CDE90423DDE90623DDE900453A
:103EC00082EAD22080EA435083EAD32181EA425138
:103ED00080EA921080EA836081EA931181EA82612C
:103EE0001AEB107A4BEB117B1AEB011A4BEB001B10
:103EF00082EA0C0112EA0C0201EA040050401AEBBB
:103F0000000A01EA0A00504083EA0E0213EA0E0397
:103F100012EA050159405BEB010B02EA0B01594023
:103F2000DDE90423A4185D41CDE9004512184B4199
:103F30008AEADA2080EA4B508BEADB2181EA4A5197
:103F400080EA9A1080EA8B6081EA9B1181EA8A619B
:103F500012EB107243EB117312EB011243EB0013DF
:103F6000CDE9042384EAD46080EA451085EAD5616E
:103F700081EA441180EA141080EA057081EA151183
:103F800081EA047118EB903849EB913918EB8148BC
:103F900049EB8049DDE9022382EA060083EA070152
:103FA000204029405040594018EB000859EB0109C6
:103FB0000A980899D0E9084518EB040859EB050957
:103FC000D1E9084518EB040859EB05091CEB080C6E
:103FD0005EEB090ED0E90A4512196B41D1E90A4599
:103FE00012196B41DDE9004586EA040087EA050104
:103FF00010EA0C0011EA0E017040794012184B4192
:104000008CEADC6080EA4E108EEADE6181EA4C11B7
:1040100080EA1C1080EA0E7081EA1E1181EA0C71A0
:1040200012EB903243EB913312EB814243EB80432E
:10403000CDE90223DDE90423DDE9064582EAD22049
:1040400080EA435083EAD32181EA425180EA921008
:1040500080EA836081EA931181EA826118EB10782B
:1040600049EB117918EB011849EB001982EA0A01B2
:1040700012EA0A0201EA0400504018EB000801EAC3
:104080000800504083EA0B0213EA0B0312EA050111
:10409000594059EB010902EA09015940DDE90223BF
:1040A000A4185D41CDE9064512184B4188EAD82095
:1040B00080EA495089EAD92181EA485180EA98107A
:1040C00080EA896081EA991181EA886112EB1072B5
:1040D00043EB117312EB011243EB0013CDE9022302
:1040E00084EAD46080EA451085EAD56181EA44110A
:1040F00080EA141080EA057081EA151181EA0471E2
:1041000016EB903647EB913716EB814647EB80472D
:10411000DDE9002382EA0C0083EA0E0120402940F9
:104120005040594036184F410A980899D0E90C453B
:1041300036196F41D1E90C4536196F411AEB060A61
:104140005BEB070BD0E90E4512196B41D1E90E4527
:1041500012196B41DDE906458CEA04008EEA05017F
:1041600010EA0A0011EA0B0190EA0C0091EA0E0134
:1041700012184B418AEADA6080EA4B108BEADB6165
:1041800081EA4A1180EA1A1080EA0B7081EA1B1159
:1041900081EA0A7112EB903243EB913312EB8142C8
:1041A00043EB8043CDE90023DDE90223DDE904454B
:1041B00082EAD22080EA435083EAD32181EA425145
:1041C00080EA921080EA836081EA931181EA826139
:1041D00016EB107647EB117716EB011647EB00173D
:1041E00082EA080112EA080201EA04005040361887
:1041F00001EA0600504083EA090213EA090312EAC1
:10420000050159404F4102EA07015940DDE9002309
:10421000A4185D41CDE9044512184B4186EAD62029
:1042200080EA475087EAD72181EA465180EA961012
:1042300080EA876081EA971181EA866112EB107249
:1042400043EB117312EB011243EB0013CDE9002392
:1042500084EAD46080EA451085EAD56181EA441198
:1042600080EA141080EA057081EA151181EA047170
:104270001CEB903C4EEB913E1CEB814C4EEB804E88
:10428000DDE9062382EA0A0083EA0B012040294087
:10429000504059401CEB000C5EEB010E0A98089947
:1042A000D0E910451CEB040C5EEB050ED1E910457E
:1042B0001CEB040C5EEB050E18EB0C0859EB0E0919
:1042C000D0E9124512196B41D1E9124512196B411F
:1042D000DDE904458AEA04008BEA050110EA0800DA
:1042E00011EA090190EA0A0091EA0B0112184B4108
:1042F00088EAD86080EA491089EAD96181EA4811E0
:1043000080EA181080EA097081EA191181EA0871BF
:1043100012EB903243EB913312EB814243EB80433B
:10432000CDE90623DDE90023DDE9024582EAD2205A
:1043300080EA435083EAD32181EA425180EA921015
:1043400080EA836081EA931181EA82611CEB107C30
:104350004EEB117E1CEB011C4EEB001E82EA0601A7
:10436000324001EA040050401CEB000C01EA0C0052
:10437000504083EA07023B4012EA050159405EEBD8
:10438000010E02EA0E015940DDE90623A4185D4141
:10439000CDE9024512184B418CEADC2080EA4E50F0
:1043A0008EEADE2181EA4C5180EA9C1080EA8E6020
:1043B00081EA9E1181EA8C6112EB107243EB11735A
:1043C00012EB011243EB0013CDE9062384EAD4601B
:1043D00080EA451085EAD56181EA441180EA14102B
:1043E00080EA057081EA151181EA04711AEB903AAE
:1043F0004BEB913B1AEB814A4BEB804BDDE90423FD
:1044000082EA080083EA09012040294050405940CF
:104410001AEB000A5BEB010B0A980899D0E91445E6
:104420001AEB040A5BEB050BD1E914451AEB040AFD
:104430005BEB050B16EB0A0657EB0B07D0E91645AD
:1044400012196B41D1E9164512196B41DDE902459C
:1044500088EA040089EA05013040394090EA080002
:1044600091EA090112184B4186EAD66080EA4710AA
:1044700087EAD76181EA461180EA161080EA077060
:1044800081EA171181EA067112EB903243EB913306
:1044900012EB814243EB8043CDE90423DDE906239F
:1044A000DDE9004582EAD22080EA435083EAD32145
:1044B00081EA425180EA921080EA836081EA931196
:1044C00081EA82611AEB107A4BEB117B1AEB011A2D
:1044D0004BEB001B82EA0C0112EA0C0201EA040019
:1044E00050401AEB000A01EA0A00504083EA0E022B
:1044F00013EA0E0312EA050159405BEB010B02EAD5
:104500000B015940DDE90423A4185D41CDE90045C4
:1045100012184B418AEADA2080EA4B508BEADB2101
:1045200081EA4A5180EA9A1080EA8B6081EA9B1105
:1045300081EA8A6112EB107243EB117312EB0112E4
:1045400043EB0013CDE9042384EAD46080EA4510EC
:1045500085EAD56181EA441180EA141080EA057089
:1045600081EA151181EA047118EB903849EB913911
:1045700018EB814849EB8049DDE9022382EA060015
:1045800083EA0701204029405040594018EB0008B9
:1045900059EB01090A980899D0E9184518EB040865
:1045A00059EB0509D1E9184518EB040859EB050941
:1045B0001CEB080C5EEB090ED0E91A4512196B4191
:1045C000D1E91A4512196B41DDE9004586EA04007C
:1045D00087EA050110EA0C0011EA0E0170407940EB
:1045E00012184B418CEADC6080EA4E108EEADE61E4
:1045F00081EA4C1180EA1C1080EA0E7081EA1E11DB
:1046000081EA0C7112EB903243EB913312EB814251
:1046100043EB8043CDE90223DDE90423DDE90645D0
:1046200082EAD22080EA435083EAD32181EA4251D0
:1046300080EA921080EA836081EA931181EA8261C4
:1046400018EB107849EB117918EB011849EB0019B8
:1046500082EA0A0112EA0A0201EA0400504018EB59
:10466000000801EA0800504083EA0B0213EA0B033A
:1046700012EA0501594059EB010902EA09015940C2
:10468000DDE90223A4185D41CDE9064512184B412E
:1046900088EAD82080EA495089EAD92181EA48513C
:1046A00080EA981080EA896081EA991181EA88613C
:1046B00012EB107243EB117312EB011243EB001378
:1046C000CDE9022384EAD46080EA451085EAD56109
:1046D00081EA441180EA141080EA057081EA15111C
:1046E00081EA047116EB903647EB913716EB814661
:1046F00047EB8047DDE9002382EA0C0083EA0E01E4
:10470000204029405040594036184F410A98089996
:10471000D0E91C4536196F41D1E91C4536196F4166
:104720001AEB060A5BEB070BD0E91E4512196B4129
:10473000D1E91E4512196B41DDE906458CEA0400FA
:104740008EEA050110EA0A0011EA0B0190EA0C005A
:1047500091EA0E0112184B418AEADA6080EA4B10A6
:104760008BEADB6181EA4A1180EA1A1080EA0B7059
:1047700081EA1B1181EA0A7112EB903243EB91330B
:1047800012EB814243EB8043CDE90023DDE90223B4
:10479000DDE9044582EAD22080EA435083EAD3214E
:1047A00081EA425180EA921080EA836081EA9311A3
:1047B00081EA826116EB107647EB117716EB011652
:1047C00047EB001782EA080112EA080201EA040036
:1047D0005040361801EA0600504083EA090213EA05
:1047E000090312EA050159404F4102EA0701594005
:1047F000DDE90023A4185D41CDE9044512184B41C1
:1048000086EAD62080EA475087EAD72181EA4651D6
:1048100080EA961080EA876081EA971181EA8661D2
:1048200012EB107243EB117312EB011243EB001306
:10483000CDE900230A9880300A90089AA2F140023C
:104840001BBCC3C2A2E818031BBCA2E8030CA2E86D
:104850001850BDE8009000BF00B59CE8F00FDCE9FF
:104860001201DCE91C23241845EB01054FEA560E22
:104870008EEAC77E8EEA162E8EEA076E8EEAD61E66
:104880008EEA476E14EB0E044FEA570E8EEAC67E90
:104890008EEA172E8EEA066E8EEAD71E45EB0E05BF
:1048A0004FEAD24E8EEA433E8EEAC20E8EEA537E25
:1048B0008EEA921E8EEA836E14EB0E044FEAD34EFC
:1048C0008EEA423E8EEAC30E8EEA527E8EEA931E36
:1048D00045EB0E05DCE91401DCE91E23361847EB35
:1048E00001074FEA580E8EEAC97E8EEA182E8EEA2C
:1048F000096E8EEAD81E8EEA496E16EB0E064FEA56
:10490000590E8EEAC87E8EEA192E8EEA086E8EEA5D
:10491000D91E47EB0E074FEAD24E8EEA433E8EEA8F
:10492000C20E8EEA537E8EEA921E8EEA836E16EBDC
:104930000E064FEAD34E8EEA423E8EEAC30E8EEA50
:10494000527E8EEA931E47EB0E07DCE9160118EB48
:10495000000849EB01094FEA5A0E8EEACB7E8EEA37
:104960001A2E8EEA0B6E8EEADA1E8EEA4B6E18EB6A
:104970000E084FEA5B0E8EEACA7E8EEA1B2E8EEA86
:104980000A6E8EEADB1E49EB0E094FEAD44E8EEA20
:10499000453E8EEAC40E8EEA557E8EEA941E8EEA5D
:1049A000856E18EB0E084FEAD54E8EEA443E8EEA2D
:1049B000C50E8EEA547E8EEA951E49EB0E09DCE99F
:1049C0001801DCE908231AEB000A4BEB010B4FEA54
:1049D000520E8EEAC37E8EEA122E8EEA036E8EEAA5
:1049E000D21E8EEA436E1AEB0E0A4FEA530E8EEA7F
:1049F000C27E8EEA132E8EEA026E8EEAD31E4BEB37
:104A00000E0B4FEAD64E8EEA473E8EEAC60E8EEA6F
:104A1000577E8EEA961E8EEA876E1AEB0E0A4FEAD2
:104A2000D74E8EEA463E8EEAC70E8EEA567E8EEA54
:104A3000971E4BEB0E0BACE8F00FDCE91201DCE942
:104A40000267121843EB01034FEA560E8EEAC77E47
:104A50008EEA162E8EEA076E8EEAD61E8EEA476E14
:104A600012EB0E024FEA570E8EEAC67E8EEA172E22
:104A70008EEA066E8EEAD71E43EB0E034FEAD84E3F
:104A80008EEA493E8EEAC80E8EEA597E8EEA981E5C
:104A90008EEA896E12EB0E024FEAD94E8EEA483E3C
:104AA0008EEAC90E8EEA587E8EEA991E43EB0E03FB
:104AB000DCE91401DCE90489361847EB01074FEA09
:104AC000580E8EEAC97E8EEA182E8EEA096E8EEA9C
:104AD000D81E8EEA496E16EB0E064FEA590E8EEA84
:104AE000C87E8EEA192E8EEA086E8EEAD91E47EB32
:104AF0000E074FEADA4E8EEA4B3E8EEACA0E8EEA77
:104B00005B7E8EEA9A1E8EEA8B6E16EB0E064FEADD
:104B1000DB4E8EEA4A3E8EEACB0E8EEA5A7E8EEA53
:104B20009B1E47EB0E07DCE91601DCE906AB18EB30
:104B3000000849EB01094FEA5A0E8EEACB7E8EEA55
:104B40001A2E8EEA0B6E8EEADA1E8EEA4B6E18EB88
:104B50000E084FEA5B0E8EEACA7E8EEA1B2E8EEAA4
:104B60000A6E8EEADB1E49EB0E094FEAD24E8EEA40
:104B7000433E8EEAC20E8EEA537E8EEA921E8EEA83
:104B8000836E18EB0E084FEAD34E8EEA423E8EEA51
:104B9000C30E8EEA527E8EEA931E49EB0E09DCE9C3
:104BA00008011AEB040A4BEB050B4FEA500E8EEA94
:104BB000C17E8EEA102E8EEA016E8EEAD01E8EEA3B
:104BC000416E1AEB0E0A4FEA510E8EEAC07E8EEA53
:104BD000112E8EEA006E8EEAD11E4BEB0E0B4FEAC1
:104BE000D64E8EEA473E8EEAC60E8EEA577E8EEA93
:104BF000961E8EEA876E1AEB0E0A4FEAD74E8EEAA1
:104C0000463E8EEAC70E8EEA567E8EEA971E4BEB24
:104C10000E0BACE8CC0F5CE90E45DCE9026700192D
:104C200041EB05014FEA560E8EEAC77E8EEA162E3C
:104C30008EEA076E8EEAD61E8EEA476E10EB0E00E5
:104C40004FEA570E8EEAC67E8EEA172E8EEA066E61
:104C50008EEAD71E41EB0E014FEAD84E8EEA493E4E
:104C60008EEAC80E8EEA597E8EEA981E8EEA896E0A
:104C700010EB0E004FEAD94E8EEA483E8EEAC90E7E
:104C80008EEA587E8EEA991E41EB0E015CE90C45D6
:104C9000DCE90489361947EB05074FEA580E8EEA1E
:104CA000C97E8EEA182E8EEA096E8EEAD81E8EEA2A
:104CB000496E16EB0E064FEA590E8EEAC87E8EEA52
:104CC000192E8EEA086E8EEAD91E47EB0E074FEAC0
:104CD000DA4E8EEA4B3E8EEACA0E8EEA5B7E8EEA92
:104CE0009A1E8EEA8B6E16EB0E064FEADB4E8EEAAC
:104CF0004A3E8EEACB0E8EEA5A7E8EEA9B1E47EB28
:104D00000E075CE90A45DCE906AB18EB040849EB41
:104D100005094FEA5A0E8EEACB7E8EEA1A2E8EEAEB
:104D20000B6E8EEADA1E8EEA4B6E18EB0E084FEA17
:104D30005B0E8EEACA7E8EEA1B2E8EEA0A6E8EEA21
:104D4000DB1E49EB0E094FEAD04E8EEA413E8EEA59
:104D5000C00E8EEA517E8EEA901E8EEA816E18EBAE
:104D60000E084FEAD14E8EEA403E8EEAC10E8EEA20
:104D7000507E8EEA911E49EB0E09DCE908451AEBDC
:104D8000020A4BEB030B4FEA540E8EEAC57E8EEA05
:104D9000142E8EEA056E8EEAD41E8EEA456E1AEB4C
:104DA0000E0A4FEA550E8EEAC47E8EEA152E8EEA62
:104DB000046E8EEAD51E4BEB0E0B4FEAD64E8EEAF2
:104DC000473E8EEAC60E8EEA577E8EEA961E8EEA21
:104DD000876E1AEB0E0A4FEAD74E8EEA463E8EEAEF
:104DE000C70E8EEA567E8EEA971E4BEB0E0BACE892
:104DF000C30F5CE90E23DCE90267A41845EB030549
:104E00004FEA560E8EEAC77E8EEA162E8EEA076E9F
:104E10008EEAD61E8EEA476E14EB0E044FEA570E4A
:104E20008EEAC67E8EEA172E8EEA066E8EEAD71EB0
:104E300045EB0E054FEAD84E8EEA493E8EEAC80E83
:104E40008EEA597E8EEA981E8EEA896E14EB0E0465
:104E50004FEAD94E8EEA483E8EEAC90E8EEA587E57
:104E60008EEA991E45EB0E055CE90C23DCE904890A
:104E7000B61847EB03074FEA580E8EEAC97E8EEA52
:104E8000182E8EEA096E8EEAD81E8EEA496E16EB4F
:104E90000E064FEA590E8EEAC87E8EEA192E8EEA69
:104EA000086E8EEAD91E47EB0E074FEADA4E8EEAFD
:104EB0004B3E8EEACA0E8EEA5B7E8EEA9A1E8EEA20
:104EC0008B6E16EB0E064FEADB4E8EEA4A3E8EEAFA
:104ED000CB0E8EEA5A7E8EEA9B1E47EB0E075CE9EC
:104EE0000A23DCE906AB18EB020849EB03094FEA99
:104EF0005A0E8EEACB7E8EEA1A2E8EEA0B6E8EEA60
:104F0000DA1E8EEA4B6E18EB0E084FEA5B0E8EEA45
:104F1000CA7E8EEA1B2E8EEA0A6E8EEADB1E49EBF3
:104F20000E094FEAD44E8EEA453E8EEAC40E8EEA52
:104F3000557E8EEA941E8EEA856E18EB0E084FEAB7
:104F4000D54E8EEA443E8EEAC50E8EEA547E8EEA37
:104F5000951E49EB0E095CE918231AEB000A4BEB8E
:104F6000010B4FEA520E8EEAC37E8EEA122E8EEAB3
:104F7000036E8EEAD21E8EEA436E1AEB0E0A4FEAD9
:104F8000530E8EEAC27E8EEA132E8EEA026E8EEAEF
:104F9000D31E4BEB0E0B4FEAD64E8EEA473E8EEAFF
:104FA000C60E8EEA577E8EEA961E8EEA876E1AEB42
:104FB0000E0A4FEAD74E8EEA463E8EEAC70E8EEABA
:104FC000567E8EEA971E4BEB0E0B8CE8F00FACF181
:104FD000600C00BD2DE9F24F00F1400CB0E8F8077D
:104FE000ACE8F807B0E8F807ACE8F807FEF72AFEE7
:104FF000FFF732FCFEF726FEFFF72EFCFEF722FE3F
:10500000FFF72AFCFEF71EFEFFF726FCFEF71AFE4E
:10501000ACF1800808F1400998E80F0CB9E8F050AD
:105020000019694192197B411AEB0C0A4BEB0E0BEC
:10503000A8E80F0C98E80F0CB9E8F0500019694186
:1050400092197B411AEB0C0A4BEB0E0BA8E80F0CE4
:1050500098E80F0099E8F0000019694192197B4126
:1050600088E80F00BDE8F88F81F0004102E000BF42
:1050700083F0004330B54FEA41044FEA430594EA18
:10508000050F08BF90EA020F1FBF54EA000C55EA53
:10509000020C7FEA645C7FEA655C00F0E2804FEA24
:1050A0005454D4EB5555B8BF6D420CDD2C4480EA06
:1050B000020281EA030382EA000083EA010180EA36
:1050C000020281EA0303362D88BF30BD11F0004F84
:1050D0004FEA01314FF4801C4CEA113102D04042BA
:1050E00061EB410113F0004F4FEA03334CEA1333F5
:1050F00002D0524263EB430394EA050F00F0A7800D
:10510000A4F10104D5F1200E0DDB02FA0EFC22FA07
:1051100005F2801841F1000103FA0EF2801843FAFB
:1051200005F359410EE0A5F120050EF1200E012AEC
:1051300003FA0EFC28BF4CF0020C43FA05F3C0182A
:1051400051EBE37101F0004507D54FF0000EDCF1A3
:10515000000C7EEB00006EEB0101B1F5801F1BD34C
:10516000B1F5001F0CD349085FEA30004FEA3C0C50
:1051700004F101044FEA445212F5800F80F09A8046
:10518000BCF1004F08BF5FEA500C50F1000041EB4A
:10519000045141EA050130BD5FEA4C0C404141EB4E
:1051A0000101013C28BFB1F5801FE9D291F0000F49
:1051B00004BF01460020B1FA81F308BF2033A3F1F8
:1051C0000B03B3F120020CDA0C3208DD02F1140CEF
:1051D000C2F10C0201FA0CF021FA02F10CE002F12A
:1051E0001402D8BFC2F1200C01FA02F120FA0CFC23
:1051F000DCBF41EA0C019040E41AA2BF01EB04516C
:10520000294330BD6FEA04041F3C1CDA0C340EDC69
:1052100004F11404C4F1200220FA04F001FA02F3AC
:1052200040EA030021FA04F345EA030130BDC4F16A
:105230000C04C4F1200220FA02F001FA04F340EA5F
:105240000300294630BD21FA04F0294630BD94F010
:10525000000F83F4801306BF81F480110134013DF7
:105260004EE77FEA645C18BF7FEA655C29D094EA68
:10527000050F08BF90EA020F05D054EA000C04BFE6
:105280001946104630BD91EA030F1EBF00210020D1
:1052900030BD5FEA545C05D14000494128BF41F070
:1052A000004130BD14F580043CBF01F5801130BDD4
:1052B00001F0004545F0FE4141F470014FF000005F
:1052C00030BD7FEA645C1ABF194610467FEA655C10
:1052D0001CBF0B46024650EA013406BF52EA0335B2
:1052E00091EA030F41F4002130BD00BF90F0000FA0
:1052F00004BF0021704730B54FF4806404F13204DC
:105300004FF000054FF0000150E700BF90F0000F94
:1053100004BF0021704730B54FF4806404F13204BB
:1053200010F0004548BF40424FF000013EE700BF8B
:1053300042004FEAE2014FEA31014FEA02701FBF1B
:1053400012F07F4393F07F4F81F06051704732F04D
:105350007F4208BF704793F07F4F04BF41F40021A4
:10536000704730B54FF4607401F0004521F0004102
:105370001CE700BF50EA010208BF704730B54FF08C
:1053800000050AE050EA010208BF704730B511F08D
:10539000004502D5404261EB41014FF4806404F1C5
:1053A00032045FEA915C3FF4D8AE4FF003025FEA4B
:1053B000DC0C18BF03325FEADC0C18BF033202EBCF
:1053C000DC02C2F1200300FA03FC20FA02F001FA29
:1053D00003FE40EA0E0021FA02F11444BDE600BFCC
:1053E00070B54FF0FF0C4CF4E06C1CEA11541DBF7B
:1053F0001CEA135594EA0C0F95EA0C0F00F0DEF846
:105400002C4481EA030621EA4C5123EA4C5350EA2A
:10541000013518BF52EA033541F4801143F480137B
:1054200038D0A0FB02CE4FF00005E1FB02E506F00C
:105430000042E0FB03E54FF00006E1FB03569CF061
:10544000000F18BF4EF0010EA4F1FF04B6F5007F67
:1054500064F5407404D25FEA4E0E6D4146EB0606D9
:1054600042EAC62141EA55514FEAC52040EA5E5062
:105470004FEACE2EB4F1FD0C88BFBCF5E06F1ED80C
:10548000BEF1004F08BF5FEA500E50F1000041EB43
:10549000045170BD06F0004646EA010140EA0200F0
:1054A00081EA0301B4EB5C04C2BFD4EB0C0541EA12
:1054B000045170BD41F480114FF0000E013C00F327
:1054C000AB8014F1360FDEBF002001F0004170BD4B
:1054D000C4F10004203C35DA0C341BDC04F1140464
:1054E000C4F1200500FA05F320FA04F001FA05F2F0
:1054F00040EA020001F0004221F0004110EBD370BD
:1055000021FA04F642EB06015EEA430E08BF20EAE8
:10551000D37070BDC4F10C04C4F1200500FA04F38B
:1055200020FA05F001FA04F240EA020001F000411D
:1055300010EBD37041F100015EEA430E08BF20EA90
:10554000D37070BDC4F1200500FA05F24EEA020ED8
:1055500020FA04F301FA05F243EA020321FA04F007
:1055600001F0004121FA04F220EA020000EBD370BE
:105570005EEA430E08BF20EAD37070BD94F0000FBE
:105580000FD101F00046400041EB010111F4801FF2
:1055900008BF013CF7D041EA060195F0000F18BFA3
:1055A000704703F00046520043EB030313F4801FDF
:1055B00008BF013DF7D043EA0603704794EA0C0F99
:1055C0000CEA135518BF95EA0C0F0CD050EA4106AF
:1055D00018BF52EA4306D1D181EA030101F000412C
:1055E0004FF0000070BD50EA410606BF1046194654
:1055F00052EA430619D094EA0C0F02D150EA013660
:1056000013D195EA0C0F05D152EA03361CBF1046A0
:1056100019460AD181EA030101F0004141F0FE413F
:1056200041F470014FF0000070BD41F0FE4141F4C3
:10563000780170BD70B54FF0FF0C4CF4E06C1CEAC3
:1056400011541DBF1CEA135594EA0C0F95EA0C0F78
:1056500000F0A7F8A4EB050481EA030E52EA033533
:105660004FEA013100F088804FEA03334FF0805554
:1056700045EA131343EA12634FEA022245EA111581
:1056800045EA10654FEA00260EF000419D4208BF32
:10569000964244F1FD0404F5407402D25B084FEADF
:1056A0003202B61A65EB03055B084FEA32024FF48B
:1056B00080104FF4002CB6EB020E75EB030E22BFE8
:1056C000B61A754640EA0C005B084FEA3202B6EBA8
:1056D000020E75EB030E22BFB61A754640EA5C0057
:1056E0005B084FEA3202B6EB020E75EB030E22BFE7
:1056F000B61A754640EA9C005B084FEA3202B6EBE8
:10570000020E75EB030E22BFB61A754640EADC00A6
:1057100055EA060E18D04FEA051545EA16754FEA08
:1057200006164FEAC30343EA52734FEAC2025FEA26
:105730001C1CC0D111F4801F0BD141EA00014FF0B5
:1057400000004FF0004CB6E711F4801F04BF014386
:105750000020B4F1FD0C88BFBCF5E06F3FF6AFAEA2
:10576000B5EB030C04BFB6EB020C5FEA500C50F132
:10577000000041EB045170BD0EF0004E4EEA1131B5
:1057800014EB5C04C2BFD4EB0C0541EA045170BDBC
:1057900041F480114FF0000E013C90E645EA060E00
:1057A0008DE60CEA135594EA0C0F08BF95EA0C0F2E
:1057B0003FF43BAF94EA0C0F0AD150EA01347FF476
:1057C00034AF95EA0C0F7FF425AF104619462CE74D
:1057D00095EA0C0F06D152EA03353FF4FDAE1046B0
:1057E000194622E750EA410618BF52EA43067FF401
:1057F000C5AE50EA41047FF40DAF52EA43057FF491
:10580000EBAE12E74FF0FF3C06E000BF4FF0010C9B
:1058100002E000BF4FF0010C4DF804CD4FEA410CFF
:105820007FEA6C5C4FEA430C18BF7FEA6C5C1BD0CC
:1058300001B050EA410C0CBF52EA430C91EA030F4D
:1058400002BF90EA020F0020704710F1000F91EAAA
:10585000030F58BF994208BF90422CBFD8176FEA78
:10586000E37040F0010070474FEA410C7FEA6C5C46
:1058700002D150EA013C07D14FEA430C7FEA6C5C4D
:10588000D6D152EA033CD3D05DF8040B704700BF79
:105890008446104662468C461946634600E000BFC7
:1058A00001B5FFF7B7FF002848BF10F1000F01BD99
:1058B0004DF808EDFFF7F4FF0CBF012000205DF864
:1058C00008FB00BF4DF808EDFFF7EAFF34BF0120E9
:1058D00000205DF808FB00BF4DF808EDFFF7E0FF82
:1058E00094BF012000205DF808FB00BF4DF808EDD3
:1058F000FFF7CEFF94BF012000205DF808FB00BF3A
:105900004DF808EDFFF7C4FF34BF012000205DF81B
:1059100008FB00BF4FEA410C7FEA6C5C02D150EA01
:10592000013C0AD14FEA430C7FEA6C5C02D152EA97
:10593000033C02D14FF0000070474FF00100704768
:105940004FEA410212F5001215D211D56FF47873A7
:10595000B3EB625212D94FEAC12343F0004343EA4A
:10596000505311F0004F23FA02F018BF4042704725
:105970004FF00000704750EA013005D111F00040AF
:1059800008BF6FF0004070474FF00000704700BF45
:105990004A0011D212F5001211D20DD56FF47873AE
:1059A000B3EB62520ED44FEAC12343F0004343EA03
:1059B000505323FA02F070474FF00000704750EA4E
:1059C000013002D14FF0FF3070474FF000007047B8
:1059D0004FEA4102B2F1E04324BFB3F5001CDCF111
:1059E000FE5C0DD901F0004C4FEAC0024CEA507049
:1059F000B2F1004F40EB830008BF20F00100704778
:105A000011F0804F21D113F13872BCBF01F000407A
:105A1000704741F480114FEA5252C2F11802C2F1AC
:105A2000200C10FA0CF320FA02F018BF40F001002D
:105A30004FEAC1234FEAD32303FA0CFC40EA0C00DF
:105A400023FA02F34FEA4303CCE77FEA625307D11C
:105A500050EA01331EBF4FF0FE4040F44000704753
:105A600001F0004040F0FE4040F40000704700BFED
:105A700080F0004002E000BF81F0004142001FBF03
:105A80005FEA410392EA030F7FEA226C7FEA236C0C
:105A90006AD04FEA1262D2EB1363C1BFD218414001
:105AA00048404140B8BF5B42192B88BF704710F097
:105AB000004F40F4000020F07F4018BF404211F03A
:105AC000004F41F4000121F07F4118BF494292EAA2
:105AD000030F3FD0A2F1010241FA03FC10EB0C00CE
